{
  "contractName": "HarmonyDIDRegistry",
  "abi": [
    {
      "anonymous": false,
      "inputs": [
        {
          "indexed": true,
          "internalType": "string",
          "name": "did",
          "type": "string"
        },
        {
          "indexed": false,
          "internalType": "bytes32",
          "name": "name",
          "type": "bytes32"
        },
        {
          "indexed": false,
          "internalType": "bytes",
          "name": "value",
          "type": "bytes"
        }
      ],
      "name": "DIDAttributeChanged",
      "type": "event"
    },
    {
      "anonymous": false,
      "inputs": [
        {
          "indexed": true,
          "internalType": "string",
          "name": "vcName",
          "type": "string"
        },
        {
          "indexed": false,
          "internalType": "bytes32",
          "name": "name",
          "type": "bytes32"
        },
        {
          "indexed": false,
          "internalType": "bytes",
          "name": "value",
          "type": "bytes"
        }
      ],
      "name": "VCSchemaChanged",
      "type": "event"
    },
    {
      "constant": true,
      "inputs": [
        {
          "internalType": "string",
          "name": "",
          "type": "string"
        }
      ],
      "name": "dids",
      "outputs": [
        {
          "internalType": "address",
          "name": "",
          "type": "address"
        }
      ],
      "payable": false,
      "stateMutability": "view",
      "type": "function"
    },
    {
      "constant": true,
      "inputs": [
        {
          "internalType": "address",
          "name": "",
          "type": "address"
        }
      ],
      "name": "nonce",
      "outputs": [
        {
          "internalType": "uint256",
          "name": "",
          "type": "uint256"
        }
      ],
      "payable": false,
      "stateMutability": "view",
      "type": "function"
    },
    {
      "constant": true,
      "inputs": [
        {
          "internalType": "string",
          "name": "",
          "type": "string"
        }
      ],
      "name": "vcIssuers",
      "outputs": [
        {
          "internalType": "string",
          "name": "",
          "type": "string"
        }
      ],
      "payable": false,
      "stateMutability": "view",
      "type": "function"
    },
    {
      "constant": false,
      "inputs": [
        {
          "internalType": "string",
          "name": "did",
          "type": "string"
        },
        {
          "internalType": "address",
          "name": "pubkey",
          "type": "address"
        },
        {
          "internalType": "uint8",
          "name": "sigV",
          "type": "uint8"
        },
        {
          "internalType": "bytes32",
          "name": "sigR",
          "type": "bytes32"
        },
        {
          "internalType": "bytes32",
          "name": "sigS",
          "type": "bytes32"
        }
      ],
      "name": "registerDid",
      "outputs": [],
      "payable": false,
      "stateMutability": "nonpayable",
      "type": "function"
    },
    {
      "constant": false,
      "inputs": [
        {
          "internalType": "string",
          "name": "did",
          "type": "string"
        },
        {
          "internalType": "address",
          "name": "pubkey",
          "type": "address"
        },
        {
          "internalType": "uint8",
          "name": "nSigV",
          "type": "uint8"
        },
        {
          "internalType": "bytes32",
          "name": "nSigR",
          "type": "bytes32"
        },
        {
          "internalType": "bytes32",
          "name": "nSigS",
          "type": "bytes32"
        },
        {
          "internalType": "uint8",
          "name": "oSigV",
          "type": "uint8"
        },
        {
          "internalType": "bytes32",
          "name": "oSigR",
          "type": "bytes32"
        },
        {
          "internalType": "bytes32",
          "name": "oSigS",
          "type": "bytes32"
        }
      ],
      "name": "updateDid",
      "outputs": [],
      "payable": false,
      "stateMutability": "nonpayable",
      "type": "function"
    },
    {
      "constant": false,
      "inputs": [
        {
          "internalType": "string",
          "name": "name",
          "type": "string"
        },
        {
          "internalType": "string",
          "name": "did",
          "type": "string"
        },
        {
          "internalType": "uint8",
          "name": "sigV",
          "type": "uint8"
        },
        {
          "internalType": "bytes32",
          "name": "sigR",
          "type": "bytes32"
        },
        {
          "internalType": "bytes32",
          "name": "sigS",
          "type": "bytes32"
        }
      ],
      "name": "createVcDef",
      "outputs": [],
      "payable": false,
      "stateMutability": "nonpayable",
      "type": "function"
    },
    {
      "constant": false,
      "inputs": [
        {
          "internalType": "string",
          "name": "did",
          "type": "string"
        },
        {
          "internalType": "uint8",
          "name": "sigV",
          "type": "uint8"
        },
        {
          "internalType": "bytes32",
          "name": "sigR",
          "type": "bytes32"
        },
        {
          "internalType": "bytes32",
          "name": "sigS",
          "type": "bytes32"
        },
        {
          "internalType": "bytes32",
          "name": "name",
          "type": "bytes32"
        },
        {
          "internalType": "bytes",
          "name": "value",
          "type": "bytes"
        }
      ],
      "name": "setAttributeSigned",
      "outputs": [],
      "payable": false,
      "stateMutability": "nonpayable",
      "type": "function"
    },
    {
      "constant": false,
      "inputs": [
        {
          "internalType": "string",
          "name": "vcName",
          "type": "string"
        },
        {
          "internalType": "uint8",
          "name": "sigV",
          "type": "uint8"
        },
        {
          "internalType": "bytes32",
          "name": "sigR",
          "type": "bytes32"
        },
        {
          "internalType": "bytes32",
          "name": "sigS",
          "type": "bytes32"
        },
        {
          "internalType": "bytes32",
          "name": "name",
          "type": "bytes32"
        },
        {
          "internalType": "bytes",
          "name": "value",
          "type": "bytes"
        }
      ],
      "name": "setVcAttributeSigned",
      "outputs": [],
      "payable": false,
      "stateMutability": "nonpayable",
      "type": "function"
    }
  ],
  "bytecode": "0x608060405234801561001057600080fd5b50612234806100206000396000f3fe608060405234801561001057600080fd5b50600436106100885760003560e01c8063b6f8a1151161005b578063b6f8a11514610509578063bb55343f14610627578063d0923626146107a4578063f44ab516146108a057610088565b806346f4303a1461008d5780634d618c5e1461020a57806352b1cf641461037d57806370ae92d2146104b1575b600080fd5b610208600480360360c08110156100a357600080fd5b81019080803590602001906401000000008111156100c057600080fd5b8201836020820111156100d257600080fd5b803590602001918460018302840111640100000000831117156100f457600080fd5b91908080601f016020809104026020016040519081016040528093929190818152602001838380828437600081840152601f19601f820116905080830192505050505050509192919290803560ff1690602001909291908035906020019092919080359060200190929190803590602001909291908035906020019064010000000081111561018257600080fd5b82018360208201111561019457600080fd5b803590602001918460018302840111640100000000831117156101b657600080fd5b91908080601f016020809104026020016040519081016040528093929190818152602001838380828437600081840152601f19601f82011690508083019250505050505050919291929050505061099b565b005b61037b600480360360a081101561022057600080fd5b810190808035906020019064010000000081111561023d57600080fd5b82018360208201111561024f57600080fd5b8035906020019184600183028401116401000000008311171561027157600080fd5b91908080601f016020809104026020016040519081016040528093929190818152602001838380828437600081840152601f19601f820116905080830192505050505050509192919290803590602001906401000000008111156102d457600080fd5b8201836020820111156102e657600080fd5b8035906020019184600183028401116401000000008311171561030857600080fd5b91908080601f016020809104026020016040519081016040528093929190818152602001838380828437600081840152601f19601f820116905080830192505050505050509192919290803560ff1690602001909291908035906020019092919080359060200190929190505050610e7f565b005b6104366004803603602081101561039357600080fd5b81019080803590602001906401000000008111156103b057600080fd5b8201836020820111156103c257600080fd5b803590602001918460018302840111640100000000831117156103e457600080fd5b91908080601f016020809104026020016040519081016040528093929190818152602001838380828437600081840152601f19601f820116905080830192505050505050509192919290505050611262565b6040518080602001828103825283818151815260200191508051906020019080838360005b8381101561047657808201518184015260208101905061045b565b50505050905090810190601f1680156104a35780820380516001836020036101000a031916815260200191505b509250505060405180910390f35b6104f3600480360360208110156104c757600080fd5b81019080803573ffffffffffffffffffffffffffffffffffffffff169060200190929190505050611328565b6040518082815260200191505060405180910390f35b610625600480360361010081101561052057600080fd5b810190808035906020019064010000000081111561053d57600080fd5b82018360208201111561054f57600080fd5b8035906020019184600183028401116401000000008311171561057157600080fd5b91908080601f016020809104026020016040519081016040528093929190818152602001838380828437600081840152601f19601f820116905080830192505050505050509192919290803573ffffffffffffffffffffffffffffffffffffffff169060200190929190803560ff1690602001909291908035906020019092919080359060200190929190803560ff1690602001909291908035906020019092919080359060200190929190505050611340565b005b6107a2600480360360c081101561063d57600080fd5b810190808035906020019064010000000081111561065a57600080fd5b82018360208201111561066c57600080fd5b8035906020019184600183028401116401000000008311171561068e57600080fd5b91908080601f016020809104026020016040519081016040528093929190818152602001838380828437600081840152601f19601f820116905080830192505050505050509192919290803560ff1690602001909291908035906020019092919080359060200190929190803590602001909291908035906020019064010000000081111561071c57600080fd5b82018360208201111561072e57600080fd5b8035906020019184600183028401116401000000008311171561075057600080fd5b91908080601f016020809104026020016040519081016040528093929190818152602001838380828437600081840152601f19601f8201169050808301925050505050505091929192905050506117eb565b005b61089e600480360360a08110156107ba57600080fd5b81019080803590602001906401000000008111156107d757600080fd5b8201836020820111156107e957600080fd5b8035906020019184600183028401116401000000008311171561080b57600080fd5b91908080601f016020809104026020016040519081016040528093929190818152602001838380828437600081840152601f19601f820116905080830192505050505050509192919290803573ffffffffffffffffffffffffffffffffffffffff169060200190929190803560ff1690602001909291908035906020019092919080359060200190929190505050611c0d565b005b610959600480360360208110156108b657600080fd5b81019080803590602001906401000000008111156108d357600080fd5b8201836020820111156108e557600080fd5b8035906020019184600183028401116401000000008311171561090757600080fd5b91908080601f016020809104026020016040519081016040528093929190818152602001838380828437600081840152601f19601f820116905080830192505050505050509192919290505050611fa8565b604051808273ffffffffffffffffffffffffffffffffffffffff1673ffffffffffffffffffffffffffffffffffffffff16815260200191505060405180910390f35b60006001876040518082805190602001908083835b602083106109d357805182526020820191506020810190506020830392506109b0565b6001836020036101000a03801982511681845116808217855250505050505090500191505090815260200160405180910390208054600181600116156101000203166002900490501415610a8f576040517f08c379a000000000000000000000000000000000000000000000000000000000815260040180806020018281038252600f8152602001807f637265645f6e6f745f657869737473000000000000000000000000000000000081525060200191505060405180910390fd5b6000806001886040518082805190602001908083835b60208310610ac85780518252602082019150602081019050602083039250610aa5565b6001836020036101000a03801982511681845116808217855250505050505090500191505090815260200160405180910390206040518082805460018160011615610100020316600290048015610b565780601f10610b34576101008083540402835291820191610b56565b820191906000526020600020905b815481529060010190602001808311610b42575b5050915050908152602001604051809103902060009054906101000a900473ffffffffffffffffffffffffffffffffffffffff1690506000600288600260008573ffffffffffffffffffffffffffffffffffffffff1673ffffffffffffffffffffffffffffffffffffffff1681526020019081526020016000205486866040516020018085805190602001908083835b60208310610c095780518252602082019150602081019050602083039250610be6565b6001836020036101000a038019825116818451168082178552505050505050905001848152602001807f7365745663417474726962757465000000000000000000000000000000000000815250600e0183815260200182805190602001908083835b60208310610c8e5780518252602082019150602081019050602083039250610c6b565b6001836020036101000a0380198251168184511680821785525050505050509050019450505050506040516020818303038152906040526040518082805190602001908083835b60208310610cf85780518252602082019150602081019050602083039250610cd5565b6001836020036101000a038019825116818451168082178552505050505050905001915050602060405180830381855afa158015610d3a573d6000803e3d6000fd5b5050506040513d6020811015610d4f57600080fd5b81019080805190602001909291905050509050610d6f8288888885611ff1565b50876040518082805190602001908083835b60208310610da45780518252602082019150602081019050602083039250610d81565b6001836020036101000a03801982511681845116808217855250505050505090500191505060405180910390207f7650c16466dfc67d3aa1b3b380b7425844e301ce12fc320f5ce442a39d222af485856040518083815260200180602001828103825283818151815260200191508051906020019080838360005b83811015610e3a578082015181840152602081019050610e1f565b50505050905090810190601f168015610e675780820380516001836020036101000a031916815260200191505b50935050505060405180910390a25050505050505050565b60006001866040518082805190602001908083835b60208310610eb75780518252602082019150602081019050602083039250610e94565b6001836020036101000a038019825116818451168082178552505050505050905001915050908152602001604051809103902080546001816001161561010002031660029004905014610f72576040517f08c379a000000000000000000000000000000000000000000000000000000000815260040180806020018281038252600a8152602001807f637265645f65786973740000000000000000000000000000000000000000000081525060200191505060405180910390fd5b600080856040518082805190602001908083835b60208310610fa95780518252602082019150602081019050602083039250610f86565b6001836020036101000a038019825116818451168082178552505050505050905001915050908152602001604051809103902060009054906101000a900473ffffffffffffffffffffffffffffffffffffffff169050600060028787600260008673ffffffffffffffffffffffffffffffffffffffff1673ffffffffffffffffffffffffffffffffffffffff168152602001908152602001600020546040516020018084805190602001908083835b6020831061107b5780518252602082019150602081019050602083039250611058565b6001836020036101000a03801982511681845116808217855250505050505090500183805190602001908083835b602083106110cc57805182526020820191506020810190506020830392506110a9565b6001836020036101000a038019825116818451168082178552505050505050905001828152602001807f637265617465566300000000000000000000000000000000000000000000000081525060080193505050506040516020818303038152906040526040518082805190602001908083835b602083106111635780518252602082019150602081019050602083039250611140565b6001836020036101000a038019825116818451168082178552505050505050905001915050602060405180830381855afa1580156111a5573d6000803e3d6000fd5b5050506040513d60208110156111ba57600080fd5b810190808051906020019092919050505090506111da8286868685611ff1565b50856001886040518082805190602001908083835b6020831061121257805182526020820191506020810190506020830392506111ef565b6001836020036101000a0380198251168184511680821785525050505050509050019150509081526020016040518091039020908051906020019061125892919061215a565b5050505050505050565b6001818051602081018201805184825260208301602085012081835280955050505050506000915090508054600181600116156101000203166002900480601f0160208091040260200160405190810160405280929190818152602001828054600181600116156101000203166002900480156113205780601f106112f557610100808354040283529160200191611320565b820191906000526020600020905b81548152906001019060200180831161130357829003601f168201915b505050505081565b60026020528060005260406000206000915090505481565b600080896040518082805190602001908083835b602083106113775780518252602082019150602081019050602083039250611354565b6001836020036101000a038019825116818451168082178552505050505050905001915050908152602001604051809103902060009054906101000a900473ffffffffffffffffffffffffffffffffffffffff169050600073ffffffffffffffffffffffffffffffffffffffff168173ffffffffffffffffffffffffffffffffffffffff161415611470576040517f08c379a000000000000000000000000000000000000000000000000000000000815260040180806020018281038252600d8152602001807f6469645f6e6f745f65786973740000000000000000000000000000000000000081525060200191505060405180910390fd5b600060028060008b73ffffffffffffffffffffffffffffffffffffffff1673ffffffffffffffffffffffffffffffffffffffff168152602001908152602001600020548b6040516020018083815260200182805190602001908083835b602083106114f057805182526020820191506020810190506020830392506114cd565b6001836020036101000a038019825116818451168082178552505050505050905001807f7570646174654469640000000000000000000000000000000000000000000000815250600901925050506040516020818303038152906040526040518082805190602001908083835b60208310611580578051825260208201915060208101905060208303925061155d565b6001836020036101000a038019825116818451168082178552505050505050905001915050602060405180830381855afa1580156115c2573d6000803e3d6000fd5b5050506040513d60208110156115d757600080fd5b810190808051906020019092919050505090506115f78289898985611ff1565b506000600282600260008673ffffffffffffffffffffffffffffffffffffffff1673ffffffffffffffffffffffffffffffffffffffff1681526020019081526020016000205460405160200180838152602001828152602001807f7570646174654469640000000000000000000000000000000000000000000000815250600901925050506040516020818303038152906040526040518082805190602001908083835b602083106116be578051825260208201915060208101905060208303925061169b565b6001836020036101000a038019825116818451168082178552505050505050905001915050602060405180830381855afa158015611700573d6000803e3d6000fd5b5050506040513d602081101561171557600080fd5b810190808051906020019092919050505090506117358387878785611ff1565b508960008c6040518082805190602001908083835b6020831061176d578051825260208201915060208101905060208303925061174a565b6001836020036101000a038019825116818451168082178552505050505050905001915050908152602001604051809103902060006101000a81548173ffffffffffffffffffffffffffffffffffffffff021916908373ffffffffffffffffffffffffffffffffffffffff1602179055505050505050505050505050565b600080876040518082805190602001908083835b6020831061182257805182526020820191506020810190506020830392506117ff565b6001836020036101000a038019825116818451168082178552505050505050905001915050908152602001604051809103902060009054906101000a900473ffffffffffffffffffffffffffffffffffffffff169050600073ffffffffffffffffffffffffffffffffffffffff168173ffffffffffffffffffffffffffffffffffffffff16141561191b576040517f08c379a000000000000000000000000000000000000000000000000000000000815260040180806020018281038252600d8152602001807f6469645f6e6f745f65786973740000000000000000000000000000000000000081525060200191505060405180910390fd5b600060028060008473ffffffffffffffffffffffffffffffffffffffff1673ffffffffffffffffffffffffffffffffffffffff168152602001908152602001600020548986866040516020018085815260200184805190602001908083835b6020831061199d578051825260208201915060208101905060208303925061197a565b6001836020036101000a038019825116818451168082178552505050505050905001807f7365744174747269627574650000000000000000000000000000000000000000815250600c0183815260200182805190602001908083835b60208310611a1c57805182526020820191506020810190506020830392506119f9565b6001836020036101000a0380198251168184511680821785525050505050509050019450505050506040516020818303038152906040526040518082805190602001908083835b60208310611a865780518252602082019150602081019050602083039250611a63565b6001836020036101000a038019825116818451168082178552505050505050905001915050602060405180830381855afa158015611ac8573d6000803e3d6000fd5b5050506040513d6020811015611add57600080fd5b81019080805190602001909291905050509050611afd8288888885611ff1565b50876040518082805190602001908083835b60208310611b325780518252602082019150602081019050602083039250611b0f565b6001836020036101000a03801982511681845116808217855250505050505090500191505060405180910390207f45731992f6f6bd99a592d32cd338d6875a784dbb138bc7a051f541d0f6d56e3785856040518083815260200180602001828103825283818151815260200191508051906020019080838360005b83811015611bc8578082015181840152602081019050611bad565b50505050905090810190601f168015611bf55780820380516001836020036101000a031916815260200191505b50935050505060405180910390a25050505050505050565b600073ffffffffffffffffffffffffffffffffffffffff166000866040518082805190602001908083835b60208310611c5b5780518252602082019150602081019050602083039250611c38565b6001836020036101000a038019825116818451168082178552505050505050905001915050908152602001604051809103902060009054906101000a900473ffffffffffffffffffffffffffffffffffffffff1673ffffffffffffffffffffffffffffffffffffffff1614611d38576040517f08c379a00000000000000000000000000000000000000000000000000000000081526004018080602001828103825260098152602001807f6469645f6578697374000000000000000000000000000000000000000000000081525060200191505060405180910390fd5b600060028686600260008973ffffffffffffffffffffffffffffffffffffffff1673ffffffffffffffffffffffffffffffffffffffff168152602001908152602001600020546040516020018084805190602001908083835b60208310611db45780518252602082019150602081019050602083039250611d91565b6001836020036101000a0380198251168184511680821785525050505050509050018373ffffffffffffffffffffffffffffffffffffffff1673ffffffffffffffffffffffffffffffffffffffff1660601b8152601401828152602001807f72656769737465724f725570646174650000000000000000000000000000000081525060100193505050506040516020818303038152906040526040518082805190602001908083835b60208310611e805780518252602082019150602081019050602083039250611e5d565b6001836020036101000a038019825116818451168082178552505050505050905001915050602060405180830381855afa158015611ec2573d6000803e3d6000fd5b5050506040513d6020811015611ed757600080fd5b81019080805190602001909291905050509050611ef78585858585611ff1565b50846000876040518082805190602001908083835b60208310611f2f5780518252602082019150602081019050602083039250611f0c565b6001836020036101000a038019825116818451168082178552505050505050905001915050908152602001604051809103902060006101000a81548173ffffffffffffffffffffffffffffffffffffffff021916908373ffffffffffffffffffffffffffffffffffffffff160217905550505050505050565b6000818051602081018201805184825260208301602085012081835280955050505050506000915054906101000a900473ffffffffffffffffffffffffffffffffffffffff1681565b60008060018387878760405160008152602001604052604051808581526020018460ff1660ff1681526020018381526020018281526020019450505050506020604051602081039080840390855afa158015612051573d6000803e3d6000fd5b5050506020604051035190508673ffffffffffffffffffffffffffffffffffffffff168173ffffffffffffffffffffffffffffffffffffffff16146120fe576040517f08c379a000000000000000000000000000000000000000000000000000000000815260040180806020018281038252600d8152602001807f6261645f7369676e61747572650000000000000000000000000000000000000081525060200191505060405180910390fd5b600260008273ffffffffffffffffffffffffffffffffffffffff1673ffffffffffffffffffffffffffffffffffffffff168152602001908152602001600020600081548092919060010191905055508091505095945050505050565b828054600181600116156101000203166002900490600052602060002090601f016020900481019282601f1061219b57805160ff19168380011785556121c9565b828001600101855582156121c9579182015b828111156121c85782518255916020019190600101906121ad565b5b5090506121d691906121da565b5090565b6121fc91905b808211156121f85760008160009055506001016121e0565b5090565b9056fea265627a7a723158207b144f364b8a35897733ad7a397c3be1c31277402db2ff378c3630f0e7a50c8c64736f6c63430005100032",
  "source": "/* SPDX-License-Identifier: MIT */\n\npragma solidity >=0.4.22 <=0.8.13;\n\ncontract HarmonyDIDRegistry {\n\n  mapping(string => address) public dids;\n  /*\n     key     credential  name\n     value   issuer's did   \n  */\n  mapping(string => string)  public vcIssuers; \n  mapping(address => uint)   public nonce;\n\n  event DIDAttributeChanged(\n    string indexed did,\n    bytes32 name,\n    bytes value\n  );\n\n  event VCSchemaChanged(\n    string indexed vcName,\n    bytes32  name,\n    bytes    value\n  );\n\n  function checkSignature(address pubkey, uint8 sigV, bytes32 sigR, bytes32 sigS, bytes32 hash) internal returns(address) {\n    address signer = ecrecover(hash, sigV, sigR, sigS);\n    require(signer == pubkey, \"bad_signature\");\n    nonce[signer]++;\n    return signer;\n  }\n\n  function registerDid(string memory did, address pubkey, uint8 sigV, bytes32 sigR, bytes32 sigS) public {\n    require(dids[did] == address(0x00), \"did_exist\");\n\n    bytes32 hash = sha256(abi.encodePacked(did, pubkey, nonce[pubkey], \"registerOrUpdate\"));\n    checkSignature(pubkey, sigV, sigR, sigS, hash);\n    dids[did] = pubkey;\n  }\n\n  function updateDid(string memory did, address pubkey, uint8 nSigV, bytes32 nSigR, bytes32 nSigS, uint8 oSigV, bytes32 oSigR, bytes32 oSigS) public {\n    address owner = dids[did];\n    require(owner != address(0x00), \"did_not_exist\");\n    bytes32 hash1 = sha256(abi.encodePacked(nonce[pubkey], did, \"updateDid\"));\n    checkSignature(owner, nSigV, nSigR, nSigS, hash1);\n    \n    bytes32 hash2 = sha256(abi.encodePacked(hash1, nonce[owner], \"updateDid\"));\n    checkSignature(owner, oSigV, oSigR, oSigS, hash2);\n    \n    dids[did] = pubkey;\n  } \n\n  function createVcDef(string memory name, string memory did, uint8 sigV, bytes32 sigR, bytes32 sigS) public {\n    require(bytes(vcIssuers[name]).length == 0, \"cred_exist\");\n    address owner = dids[did];\n    bytes32 hash = sha256(abi.encodePacked(name, did, nonce[owner], \"createVc\"));\n    checkSignature(owner, sigV, sigR, sigS, hash);\n    vcIssuers[name] = did;\n  }\n\n  function setAttributeSigned(string memory did, uint8 sigV, bytes32 sigR, bytes32 sigS, bytes32 name, bytes memory value) public {\n    address owner = dids[did];\n    require(owner != address(0x00), \"did_not_exist\");\n    bytes32 hash = sha256(abi.encodePacked(nonce[owner], did, \"setAttribute\", name, value));\n\n    checkSignature(owner, sigV, sigR, sigS, hash);\n\n    emit DIDAttributeChanged(did, name, value);\n  }\n\n  function setVcAttributeSigned(string memory vcName, uint8 sigV, bytes32 sigR, bytes32 sigS, bytes32 name, bytes memory value) public {\n    require(bytes(vcIssuers[vcName]).length != 0, \"cred_not_exists\");\n    address owner = dids[vcIssuers[vcName]];\n    bytes32 hash = sha256(abi.encodePacked(vcName, nonce[owner], \"setVcAttribute\", name, value));\n    checkSignature(owner,  sigV, sigR, sigS, hash);\n\n    emit VCSchemaChanged(vcName, name, value);\n  }\n}\n",
  "sourcePath": "/home/user1/harmony/metablox_smartcontract/contracts/HarmonyDIDRegistry.sol",
  "compiler": {
    "name": "solc",
    "version": "0.5.16+commit.9c3226ce.Emscripten.clang"
  },
  "schemaVersion": "3.4.6",
  "updatedAt": "2022-04-25T07:56:06.498Z",
  "networkType": "ethereum",
  "devdoc": {
    "methods": {}
  },
  "userdoc": {
    "methods": {}
  }
}