{
  "contractName": "HarmonyDIDRegistry",
  "abi": [
    {
      "anonymous": false,
      "inputs": [
        {
          "indexed": true,
          "internalType": "string",
          "name": "did",
          "type": "string"
        },
        {
          "indexed": false,
          "internalType": "bytes32",
          "name": "name",
          "type": "bytes32"
        },
        {
          "indexed": false,
          "internalType": "bytes",
          "name": "value",
          "type": "bytes"
        }
      ],
      "name": "DIDAttributeChanged",
      "type": "event"
    },
    {
      "anonymous": false,
      "inputs": [
        {
          "indexed": true,
          "internalType": "string",
          "name": "vcName",
          "type": "string"
        },
        {
          "indexed": false,
          "internalType": "bytes32",
          "name": "name",
          "type": "bytes32"
        },
        {
          "indexed": false,
          "internalType": "bytes",
          "name": "value",
          "type": "bytes"
        }
      ],
      "name": "VCSchemaChanged",
      "type": "event"
    },
    {
      "constant": true,
      "inputs": [
        {
          "internalType": "string",
          "name": "",
          "type": "string"
        }
      ],
      "name": "dids",
      "outputs": [
        {
          "internalType": "address",
          "name": "",
          "type": "address"
        }
      ],
      "payable": false,
      "stateMutability": "view",
      "type": "function"
    },
    {
      "constant": true,
      "inputs": [
        {
          "internalType": "address",
          "name": "",
          "type": "address"
        }
      ],
      "name": "nonce",
      "outputs": [
        {
          "internalType": "uint256",
          "name": "",
          "type": "uint256"
        }
      ],
      "payable": false,
      "stateMutability": "view",
      "type": "function"
    },
    {
      "constant": true,
      "inputs": [
        {
          "internalType": "string",
          "name": "",
          "type": "string"
        }
      ],
      "name": "vcIssuers",
      "outputs": [
        {
          "internalType": "string",
          "name": "",
          "type": "string"
        }
      ],
      "payable": false,
      "stateMutability": "view",
      "type": "function"
    },
    {
      "constant": false,
      "inputs": [
        {
          "internalType": "string",
          "name": "did",
          "type": "string"
        },
        {
          "internalType": "address",
          "name": "pubkey",
          "type": "address"
        },
        {
          "internalType": "uint8",
          "name": "sigV",
          "type": "uint8"
        },
        {
          "internalType": "bytes32",
          "name": "sigR",
          "type": "bytes32"
        },
        {
          "internalType": "bytes32",
          "name": "sigS",
          "type": "bytes32"
        }
      ],
      "name": "registerOrUpdateDidKey",
      "outputs": [],
      "payable": false,
      "stateMutability": "nonpayable",
      "type": "function"
    },
    {
      "constant": false,
      "inputs": [
        {
          "internalType": "string",
          "name": "name",
          "type": "string"
        },
        {
          "internalType": "string",
          "name": "did",
          "type": "string"
        },
        {
          "internalType": "uint8",
          "name": "sigV",
          "type": "uint8"
        },
        {
          "internalType": "bytes32",
          "name": "sigR",
          "type": "bytes32"
        },
        {
          "internalType": "bytes32",
          "name": "sigS",
          "type": "bytes32"
        }
      ],
      "name": "createVcDef",
      "outputs": [],
      "payable": false,
      "stateMutability": "nonpayable",
      "type": "function"
    },
    {
      "constant": false,
      "inputs": [
        {
          "internalType": "string",
          "name": "did",
          "type": "string"
        },
        {
          "internalType": "uint8",
          "name": "sigV",
          "type": "uint8"
        },
        {
          "internalType": "bytes32",
          "name": "sigR",
          "type": "bytes32"
        },
        {
          "internalType": "bytes32",
          "name": "sigS",
          "type": "bytes32"
        },
        {
          "internalType": "bytes32",
          "name": "name",
          "type": "bytes32"
        },
        {
          "internalType": "bytes",
          "name": "value",
          "type": "bytes"
        }
      ],
      "name": "setAttributeSigned",
      "outputs": [],
      "payable": false,
      "stateMutability": "nonpayable",
      "type": "function"
    },
    {
      "constant": false,
      "inputs": [
        {
          "internalType": "string",
          "name": "vcName",
          "type": "string"
        },
        {
          "internalType": "uint8",
          "name": "sigV",
          "type": "uint8"
        },
        {
          "internalType": "bytes32",
          "name": "sigR",
          "type": "bytes32"
        },
        {
          "internalType": "bytes32",
          "name": "sigS",
          "type": "bytes32"
        },
        {
          "internalType": "bytes32",
          "name": "name",
          "type": "bytes32"
        },
        {
          "internalType": "bytes",
          "name": "value",
          "type": "bytes"
        }
      ],
      "name": "setVcAttributeSigned",
      "outputs": [],
      "payable": false,
      "stateMutability": "nonpayable",
      "type": "function"
    }
  ],
  "bytecode": "0x608060405234801561001057600080fd5b50611ca7806100206000396000f3fe608060405234801561001057600080fd5b506004361061007d5760003560e01c806370ae92d21161005b57806370ae92d2146104a65780637b3d5aa8146104fe578063bb55343f146105fa578063f44ab516146107775761007d565b806346f4303a146100825780634d618c5e146101ff57806352b1cf6414610372575b600080fd5b6101fd600480360360c081101561009857600080fd5b81019080803590602001906401000000008111156100b557600080fd5b8201836020820111156100c757600080fd5b803590602001918460018302840111640100000000831117156100e957600080fd5b91908080601f016020809104026020016040519081016040528093929190818152602001838380828437600081840152601f19601f820116905080830192505050505050509192919290803560ff1690602001909291908035906020019092919080359060200190929190803590602001909291908035906020019064010000000081111561017757600080fd5b82018360208201111561018957600080fd5b803590602001918460018302840111640100000000831117156101ab57600080fd5b91908080601f016020809104026020016040519081016040528093929190818152602001838380828437600081840152601f19601f820116905080830192505050505050509192919290505050610872565b005b610370600480360360a081101561021557600080fd5b810190808035906020019064010000000081111561023257600080fd5b82018360208201111561024457600080fd5b8035906020019184600183028401116401000000008311171561026657600080fd5b91908080601f016020809104026020016040519081016040528093929190818152602001838380828437600081840152601f19601f820116905080830192505050505050509192919290803590602001906401000000008111156102c957600080fd5b8201836020820111156102db57600080fd5b803590602001918460018302840111640100000000831117156102fd57600080fd5b91908080601f016020809104026020016040519081016040528093929190818152602001838380828437600081840152601f19601f820116905080830192505050505050509192919290803560ff1690602001909291908035906020019092919080359060200190929190505050610d58565b005b61042b6004803603602081101561038857600080fd5b81019080803590602001906401000000008111156103a557600080fd5b8201836020820111156103b757600080fd5b803590602001918460018302840111640100000000831117156103d957600080fd5b91908080601f016020809104026020016040519081016040528093929190818152602001838380828437600081840152601f19601f82011690508083019250505050505050919291929050505061113d565b6040518080602001828103825283818151815260200191508051906020019080838360005b8381101561046b578082015181840152602081019050610450565b50505050905090810190601f1680156104985780820380516001836020036101000a031916815260200191505b509250505060405180910390f35b6104e8600480360360208110156104bc57600080fd5b81019080803573ffffffffffffffffffffffffffffffffffffffff169060200190929190505050611203565b6040518082815260200191505060405180910390f35b6105f8600480360360a081101561051457600080fd5b810190808035906020019064010000000081111561053157600080fd5b82018360208201111561054357600080fd5b8035906020019184600183028401116401000000008311171561056557600080fd5b91908080601f016020809104026020016040519081016040528093929190818152602001838380828437600081840152601f19601f820116905080830192505050505050509192919290803573ffffffffffffffffffffffffffffffffffffffff169060200190929190803560ff169060200190929190803590602001909291908035906020019092919050505061121b565b005b610775600480360360c081101561061057600080fd5b810190808035906020019064010000000081111561062d57600080fd5b82018360208201111561063f57600080fd5b8035906020019184600183028401116401000000008311171561066157600080fd5b91908080601f016020809104026020016040519081016040528093929190818152602001838380828437600081840152601f19601f820116905080830192505050505050509192919290803560ff169060200190929190803590602001909291908035906020019092919080359060200190929190803590602001906401000000008111156106ef57600080fd5b82018360208201111561070157600080fd5b8035906020019184600183028401116401000000008311171561072357600080fd5b91908080601f016020809104026020016040519081016040528093929190818152602001838380828437600081840152601f19601f82011690508083019250505050505050919291929050505061151a565b005b6108306004803603602081101561078d57600080fd5b81019080803590602001906401000000008111156107aa57600080fd5b8201836020820111156107bc57600080fd5b803590602001918460018302840111640100000000831117156107de57600080fd5b91908080601f016020809104026020016040519081016040528093929190818152602001838380828437600081840152601f19601f82011690508083019250505050505050919291929050505061193e565b604051808273ffffffffffffffffffffffffffffffffffffffff1673ffffffffffffffffffffffffffffffffffffffff16815260200191505060405180910390f35b60006001876040518082805190602001908083835b602083106108aa5780518252602082019150602081019050602083039250610887565b6001836020036101000a03801982511681845116808217855250505050505090500191505090815260200160405180910390208054600181600116156101000203166002900490501415610966576040517f08c379a000000000000000000000000000000000000000000000000000000000815260040180806020018281038252600f8152602001807f637265645f6e6f745f657869737473000000000000000000000000000000000081525060200191505060405180910390fd5b6000806001886040518082805190602001908083835b6020831061099f578051825260208201915060208101905060208303925061097c565b6001836020036101000a03801982511681845116808217855250505050505090500191505090815260200160405180910390206040518082805460018160011615610100020316600290048015610a2d5780601f10610a0b576101008083540402835291820191610a2d565b820191906000526020600020905b815481529060010190602001808311610a19575b5050915050908152602001604051809103902060009054906101000a900473ffffffffffffffffffffffffffffffffffffffff1690506000600288600260008573ffffffffffffffffffffffffffffffffffffffff1673ffffffffffffffffffffffffffffffffffffffff1681526020019081526020016000205486866040516020018085805190602001908083835b60208310610ae05780518252602082019150602081019050602083039250610abd565b6001836020036101000a038019825116818451168082178552505050505050905001848152602001807f7365745663417474726962757465000000000000000000000000000000000000815250600e0183815260200182805190602001908083835b60208310610b655780518252602082019150602081019050602083039250610b42565b6001836020036101000a0380198251168184511680821785525050505050509050019450505050506040516020818303038152906040526040518082805190602001908083835b60208310610bcf5780518252602082019150602081019050602083039250610bac565b6001836020036101000a038019825116818451168082178552505050505050905001915050602060405180830381855afa158015610c11573d6000803e3d6000fd5b5050506040513d6020811015610c2657600080fd5b81019080805190602001909291905050509050610c4882600089898986611987565b50876040518082805190602001908083835b60208310610c7d5780518252602082019150602081019050602083039250610c5a565b6001836020036101000a03801982511681845116808217855250505050505090500191505060405180910390207f7650c16466dfc67d3aa1b3b380b7425844e301ce12fc320f5ce442a39d222af485856040518083815260200180602001828103825283818151815260200191508051906020019080838360005b83811015610d13578082015181840152602081019050610cf8565b50505050905090810190601f168015610d405780820380516001836020036101000a031916815260200191505b50935050505060405180910390a25050505050505050565b60006001866040518082805190602001908083835b60208310610d905780518252602082019150602081019050602083039250610d6d565b6001836020036101000a038019825116818451168082178552505050505050905001915050908152602001604051809103902080546001816001161561010002031660029004905014610e4b576040517f08c379a000000000000000000000000000000000000000000000000000000000815260040180806020018281038252600a8152602001807f637265645f65786973740000000000000000000000000000000000000000000081525060200191505060405180910390fd5b600080856040518082805190602001908083835b60208310610e825780518252602082019150602081019050602083039250610e5f565b6001836020036101000a038019825116818451168082178552505050505050905001915050908152602001604051809103902060009054906101000a900473ffffffffffffffffffffffffffffffffffffffff169050600060028787600260008673ffffffffffffffffffffffffffffffffffffffff1673ffffffffffffffffffffffffffffffffffffffff168152602001908152602001600020546040516020018084805190602001908083835b60208310610f545780518252602082019150602081019050602083039250610f31565b6001836020036101000a03801982511681845116808217855250505050505090500183805190602001908083835b60208310610fa55780518252602082019150602081019050602083039250610f82565b6001836020036101000a038019825116818451168082178552505050505050905001828152602001807f637265617465566300000000000000000000000000000000000000000000000081525060080193505050506040516020818303038152906040526040518082805190602001908083835b6020831061103c5780518252602082019150602081019050602083039250611019565b6001836020036101000a038019825116818451168082178552505050505050905001915050602060405180830381855afa15801561107e573d6000803e3d6000fd5b5050506040513d602081101561109357600080fd5b810190808051906020019092919050505090506110b582600087878786611987565b50856001886040518082805190602001908083835b602083106110ed57805182526020820191506020810190506020830392506110ca565b6001836020036101000a03801982511681845116808217855250505050505090500191505090815260200160405180910390209080519060200190611133929190611bcd565b5050505050505050565b6001818051602081018201805184825260208301602085012081835280955050505050506000915090508054600181600116156101000203166002900480601f0160208091040260200160405190810160405280929190818152602001828054600181600116156101000203166002900480156111fb5780601f106111d0576101008083540402835291602001916111fb565b820191906000526020600020905b8154815290600101906020018083116111de57829003601f168201915b505050505081565b60026020528060005260406000206000915090505481565b600080866040518082805190602001908083835b60208310611252578051825260208201915060208101905060208303925061122f565b6001836020036101000a038019825116818451168082178552505050505050905001915050908152602001604051809103902060009054906101000a900473ffffffffffffffffffffffffffffffffffffffff169050600060028787600260008673ffffffffffffffffffffffffffffffffffffffff1673ffffffffffffffffffffffffffffffffffffffff168152602001908152602001600020546040516020018084805190602001908083835b602083106113245780518252602082019150602081019050602083039250611301565b6001836020036101000a0380198251168184511680821785525050505050509050018373ffffffffffffffffffffffffffffffffffffffff1673ffffffffffffffffffffffffffffffffffffffff1660601b8152601401828152602001807f72656769737465724f725570646174650000000000000000000000000000000081525060100193505050506040516020818303038152906040526040518082805190602001908083835b602083106113f057805182526020820191506020810190506020830392506113cd565b6001836020036101000a038019825116818451168082178552505050505050905001915050602060405180830381855afa158015611432573d6000803e3d6000fd5b5050506040513d602081101561144757600080fd5b81019080805190602001909291905050509050611468828787878786611987565b50856000886040518082805190602001908083835b602083106114a0578051825260208201915060208101905060208303925061147d565b6001836020036101000a038019825116818451168082178552505050505050905001915050908152602001604051809103902060006101000a81548173ffffffffffffffffffffffffffffffffffffffff021916908373ffffffffffffffffffffffffffffffffffffffff16021790555050505050505050565b600080876040518082805190602001908083835b60208310611551578051825260208201915060208101905060208303925061152e565b6001836020036101000a038019825116818451168082178552505050505050905001915050908152602001604051809103902060009054906101000a900473ffffffffffffffffffffffffffffffffffffffff169050600073ffffffffffffffffffffffffffffffffffffffff168173ffffffffffffffffffffffffffffffffffffffff16141561164a576040517f08c379a000000000000000000000000000000000000000000000000000000000815260040180806020018281038252600d8152602001807f6469645f6e6f745f65786973740000000000000000000000000000000000000081525060200191505060405180910390fd5b600060028060008473ffffffffffffffffffffffffffffffffffffffff1673ffffffffffffffffffffffffffffffffffffffff168152602001908152602001600020548986866040516020018085815260200184805190602001908083835b602083106116cc57805182526020820191506020810190506020830392506116a9565b6001836020036101000a038019825116818451168082178552505050505050905001807f7365744174747269627574650000000000000000000000000000000000000000815250600c0183815260200182805190602001908083835b6020831061174b5780518252602082019150602081019050602083039250611728565b6001836020036101000a0380198251168184511680821785525050505050509050019450505050506040516020818303038152906040526040518082805190602001908083835b602083106117b55780518252602082019150602081019050602083039250611792565b6001836020036101000a038019825116818451168082178552505050505050905001915050602060405180830381855afa1580156117f7573d6000803e3d6000fd5b5050506040513d602081101561180c57600080fd5b8101908080519060200190929190505050905061182e82600089898986611987565b50876040518082805190602001908083835b602083106118635780518252602082019150602081019050602083039250611840565b6001836020036101000a03801982511681845116808217855250505050505090500191505060405180910390207f45731992f6f6bd99a592d32cd338d6875a784dbb138bc7a051f541d0f6d56e3785856040518083815260200180602001828103825283818151815260200191508051906020019080838360005b838110156118f95780820151818401526020810190506118de565b50505050905090810190601f1680156119265780820380516001836020036101000a031916815260200191505b50935050505060405180910390a25050505050505050565b6000818051602081018201805184825260208301602085012081835280955050505050506000915054906101000a900473ffffffffffffffffffffffffffffffffffffffff1681565b60008060018387878760405160008152602001604052604051808581526020018460ff1660ff1681526020018381526020018281526020019450505050506020604051602081039080840390855afa1580156119e7573d6000803e3d6000fd5b505050602060405103519050600073ffffffffffffffffffffffffffffffffffffffff168873ffffffffffffffffffffffffffffffffffffffff161415611ace578773ffffffffffffffffffffffffffffffffffffffff168173ffffffffffffffffffffffffffffffffffffffff1614611ac9576040517f08c379a000000000000000000000000000000000000000000000000000000000815260040180806020018281038252600d8152602001807f6261645f7369676e61747572650000000000000000000000000000000000000081525060200191505060405180910390fd5b611b70565b8673ffffffffffffffffffffffffffffffffffffffff168173ffffffffffffffffffffffffffffffffffffffff1614611b6f576040517f08c379a000000000000000000000000000000000000000000000000000000000815260040180806020018281038252600d8152602001807f6261645f7369676e61747572650000000000000000000000000000000000000081525060200191505060405180910390fd5b5b600260008273ffffffffffffffffffffffffffffffffffffffff1673ffffffffffffffffffffffffffffffffffffffff16815260200190815260200160002060008154809291906001019190505550809150509695505050505050565b828054600181600116156101000203166002900490600052602060002090601f016020900481019282601f10611c0e57805160ff1916838001178555611c3c565b82800160010185558215611c3c579182015b82811115611c3b578251825591602001919060010190611c20565b5b509050611c499190611c4d565b5090565b611c6f91905b80821115611c6b576000816000905550600101611c53565b5090565b9056fea265627a7a72315820e1028b15a7690210575f459301e01f3d91b730eabf72eb65acfcd339d9d32b8c64736f6c63430005100032",
  "source": "/* SPDX-License-Identifier: MIT */\n\npragma solidity >=0.4.22 <0.8.0;\n\ncontract HarmonyDIDRegistry {\n\n  mapping(string => address) public dids;\n  /*\n     key     credential  name\n     value   issuer's did   \n  */\n  mapping(string => string)  public vcIssuers; \n  mapping(address => uint)   public nonce;\n\n  event DIDAttributeChanged(\n    string indexed did,\n    bytes32 name,\n    bytes value\n  );\n\n  event VCSchemaChanged(\n    string indexed vcName,\n    bytes32  name,\n    bytes    value\n  );\n  \n  function checkSignature(address owner, address pubkey, uint8 sigV, bytes32 sigR, bytes32 sigS, bytes32 hash) internal returns(address) {\n    address signer = ecrecover(hash, sigV, sigR, sigS);\n    if (owner == address(0x00)) {\n      require(signer == owner, \"bad_signature\");\n    } else {\n      require(signer == pubkey, \"bad_signature\");\n    }\n    nonce[signer]++;\n    return signer;\n  }\n\n  function registerOrUpdateDidKey(string memory did, address pubkey, uint8 sigV, bytes32 sigR, bytes32 sigS) public {\n    address owner = dids[did];\n    bytes32 hash = sha256(abi.encodePacked(did, pubkey, nonce[owner], \"registerOrUpdate\"));\n    checkSignature(owner, pubkey, sigV, sigR, sigS, hash);\n    dids[did] = pubkey;\n  }\n\n  function createVcDef(string memory name, string memory did, uint8 sigV, bytes32 sigR, bytes32 sigS) public {\n    require(bytes(vcIssuers[name]).length == 0, \"cred_exist\");\n    address owner = dids[did];\n    bytes32 hash = sha256(abi.encodePacked(name, did, nonce[owner], \"createVc\"));\n    checkSignature(owner, address(0x00), sigV, sigR, sigS, hash);\n    vcIssuers[name] = did;\n  }\n\n  function setAttributeSigned(string memory did, uint8 sigV, bytes32 sigR, bytes32 sigS, bytes32 name, bytes memory value) public {\n    address owner = dids[did];\n    require(owner != address(0x00), \"did_not_exist\");\n    bytes32 hash = sha256(abi.encodePacked(nonce[owner], did, \"setAttribute\", name, value));\n\n    checkSignature(owner, address(0x00), sigV, sigR, sigS, hash);\n\n    emit DIDAttributeChanged(did, name, value);\n  }\n\n  function setVcAttributeSigned(string memory vcName, uint8 sigV, bytes32 sigR, bytes32 sigS, bytes32 name, bytes memory value) public {\n    require(bytes(vcIssuers[vcName]).length != 0, \"cred_not_exists\");\n    address owner = dids[vcIssuers[vcName]];\n    bytes32 hash = sha256(abi.encodePacked(vcName, nonce[owner], \"setVcAttribute\", name, value));\n    checkSignature(owner, address(0x00), sigV, sigR, sigS, hash);\n\n    emit VCSchemaChanged(vcName, name, value);\n  }\n\n}\n",
  "sourcePath": "/home/user1/harmony/demo/contracts/HarmonyDIDRegistry.sol",
  "compiler": {
    "name": "solc",
    "version": "0.5.16+commit.9c3226ce.Emscripten.clang"
  },
  "schemaVersion": "3.4.6",
  "updatedAt": "2022-04-09T03:51:58.766Z",
  "networkType": "ethereum",
  "devdoc": {
    "methods": {}
  },
  "userdoc": {
    "methods": {}
  }
}